{
  "_format": "hh-sol-artifact-1",
  "contractName": "Escrow",
  "sourceName": "contracts/Escrow.sol",
  "abi": [
    {
      "inputs": [
        {
          "internalType": "address",
          "name": "_buyer",
          "type": "address"
        },
        {
          "internalType": "address",
          "name": "_seller",
          "type": "address"
        }
      ],
      "stateMutability": "nonpayable",
      "type": "constructor"
    },
    {
      "anonymous": false,
      "inputs": [],
      "name": "Completed",
      "type": "event"
    },
    {
      "anonymous": false,
      "inputs": [
        {
          "indexed": false,
          "internalType": "uint256",
          "name": "amount",
          "type": "uint256"
        }
      ],
      "name": "Funded",
      "type": "event"
    },
    {
      "anonymous": false,
      "inputs": [],
      "name": "Refunded",
      "type": "event"
    },
    {
      "anonymous": false,
      "inputs": [],
      "name": "Shipped",
      "type": "event"
    },
    {
      "inputs": [],
      "name": "amount",
      "outputs": [
        {
          "internalType": "uint256",
          "name": "",
          "type": "uint256"
        }
      ],
      "stateMutability": "view",
      "type": "function"
    },
    {
      "inputs": [],
      "name": "buyer",
      "outputs": [
        {
          "internalType": "address",
          "name": "",
          "type": "address"
        }
      ],
      "stateMutability": "view",
      "type": "function"
    },
    {
      "inputs": [],
      "name": "confirmDelivery",
      "outputs": [],
      "stateMutability": "nonpayable",
      "type": "function"
    },
    {
      "inputs": [],
      "name": "confirmShipment",
      "outputs": [],
      "stateMutability": "nonpayable",
      "type": "function"
    },
    {
      "inputs": [],
      "name": "fund",
      "outputs": [],
      "stateMutability": "payable",
      "type": "function"
    },
    {
      "inputs": [],
      "name": "getDetails",
      "outputs": [
        {
          "internalType": "address",
          "name": "_buyer",
          "type": "address"
        },
        {
          "internalType": "address",
          "name": "_seller",
          "type": "address"
        },
        {
          "internalType": "enum Escrow.State",
          "name": "_state",
          "type": "uint8"
        },
        {
          "internalType": "uint256",
          "name": "_amount",
          "type": "uint256"
        }
      ],
      "stateMutability": "view",
      "type": "function"
    },
    {
      "inputs": [],
      "name": "refund",
      "outputs": [],
      "stateMutability": "nonpayable",
      "type": "function"
    },
    {
      "inputs": [],
      "name": "seller",
      "outputs": [
        {
          "internalType": "address",
          "name": "",
          "type": "address"
        }
      ],
      "stateMutability": "view",
      "type": "function"
    },
    {
      "inputs": [],
      "name": "state",
      "outputs": [
        {
          "internalType": "enum Escrow.State",
          "name": "",
          "type": "uint8"
        }
      ],
      "stateMutability": "view",
      "type": "function"
    }
  ],
  "bytecode": "0x608060405234801561001057600080fd5b506040516109aa3803806109aa83398101604081905261002f9161019e565b6001600160a01b03821661008a5760405162461bcd60e51b815260206004820152601560248201527f496e76616c69642062757965722061646472657373000000000000000000000060448201526064015b60405180910390fd5b6001600160a01b0381166100e05760405162461bcd60e51b815260206004820152601660248201527f496e76616c69642073656c6c65722061646472657373000000000000000000006044820152606401610081565b806001600160a01b0316826001600160a01b03160361014c5760405162461bcd60e51b815260206004820152602260248201527f427579657220616e642073656c6c6572206d75737420626520646966666572656044820152611b9d60f21b6064820152608401610081565b600080546001600160a01b0319166001600160a01b03938416179055600180546001600160a81b031916919092161790556101d1565b80516001600160a01b038116811461019957600080fd5b919050565b600080604083850312156101b157600080fd5b6101ba83610182565b91506101c860208401610182565b90509250929050565b6107ca806101e06000396000f3fe6080604052600436106100865760003560e01c8063aa8c217c11610059578063aa8c217c14610114578063b60d428814610138578063c19d93fb14610140578063fbbf93a01461016e578063feb71d9a146101ae57600080fd5b806308551a531461008b578063590e1ae3146100c85780635e10177b146100df5780637150d8ae146100f4575b600080fd5b34801561009757600080fd5b506001546100ab906001600160a01b031681565b6040516001600160a01b0390911681526020015b60405180910390f35b3480156100d457600080fd5b506100dd6101c3565b005b3480156100eb57600080fd5b506100dd61037f565b34801561010057600080fd5b506000546100ab906001600160a01b031681565b34801561012057600080fd5b5061012a60025481565b6040519081526020016100bf565b6100dd6104cb565b34801561014c57600080fd5b5060015461016190600160a01b900460ff1681565b6040516100bf91906106e0565b34801561017a57600080fd5b506000546001546002546001600160a01b0392831692821691600160a01b900460ff16906040516100bf94939291906106f4565b3480156101ba57600080fd5b506100dd6105d1565b6000546001600160a01b031633146101f65760405162461bcd60e51b81526004016101ed90610728565b60405180910390fd5b60018054600160a01b900460ff166004811115610215576102156106a8565b148061023e57506002600154600160a01b900460ff16600481111561023c5761023c6106a8565b145b6102a35760405162461bcd60e51b815260206004820152603060248201527f526566756e64206f6e6c7920617661696c61626c6520696e2046756e6465642060448201526f6f72205368697070656420737461746560801b60648201526084016101ed565b6001805460ff60a01b1916600160a21b179055600080546002546040516001600160a01b03909216918381818185875af1925050503d8060008114610304576040519150601f19603f3d011682016040523d82523d6000602084013e610309565b606091505b50509050806103535760405162461bcd60e51b81526020600482015260166024820152751499599d5b99081d1bc8189d5e595c8819985a5b195960521b60448201526064016101ed565b6040517f8616bbbbad963e4e65b1366f1d75dfb63f9e9704bbbf91fb01bec70849906cf790600090a150565b6000546001600160a01b031633146103a95760405162461bcd60e51b81526004016101ed90610728565b600280600154600160a01b900460ff1660048111156103ca576103ca6106a8565b146103e75760405162461bcd60e51b81526004016101ed9061075f565b60018054600360a01b60ff60a01b198216179091556002546040516000926001600160a01b031691908381818185875af1925050503d8060008114610448576040519150601f19603f3d011682016040523d82523d6000602084013e61044d565b606091505b505090508061049e5760405162461bcd60e51b815260206004820152601960248201527f5472616e7366657220746f2073656c6c6572206661696c65640000000000000060448201526064016101ed565b6040517fe06452d00b2b58f14a1fa6d499ea982ff93ea827ae700ea9ba03f4daddc94bc190600090a15050565b6000546001600160a01b031633146104f55760405162461bcd60e51b81526004016101ed90610728565b600080600154600160a01b900460ff166004811115610516576105166106a8565b146105335760405162461bcd60e51b81526004016101ed9061075f565b600034116105835760405162461bcd60e51b815260206004820152601d60248201527f4d7573742073656e64204842415220746f2066756e6420657363726f7700000060448201526064016101ed565b3460028190556001805460ff60a01b1916600160a01b17905560408051918252517fc4c14883ae9fd8e26d5d59e3485ed29fd126d781d7e498a4ca5c54c8268e49369181900360200190a150565b6001546001600160a01b0316331461062b5760405162461bcd60e51b815260206004820152601960248201527f4f6e6c792073656c6c65722063616e2063616c6c20746869730000000000000060448201526064016101ed565b600180600154600160a01b900460ff16600481111561064c5761064c6106a8565b146106695760405162461bcd60e51b81526004016101ed9061075f565b6001805460ff60a01b1916600160a11b1790556040517f7e59301e8f305f5c00782684a06219e893eb13468cc8476daa9e4a2197f95e5e90600090a150565b634e487b7160e01b600052602160045260246000fd5b600581106106dc57634e487b7160e01b600052602160045260246000fd5b9052565b602081016106ee82846106be565b92915050565b6001600160a01b038581168252841660208201526080810161071960408301856106be565b82606083015295945050505050565b60208082526018908201527f4f6e6c792062757965722063616e2063616c6c20746869730000000000000000604082015260600190565b6020808252818101527f496e76616c696420737461746520666f722074686973206f7065726174696f6e60408201526060019056fea26469706673582212207baba4232236f19b4c109b7b5c5d2c6ae2ac96560dcddc6433be72ce53aeaa5b64736f6c63430008140033",
  "linkReferences": {},
  "deployedLinkReferences": {}
}