{
  "_format": "hh-sol-artifact-1",
  "contractName": "EscrowFactory",
  "sourceName": "contracts/EscrowFactory.sol",
  "abi": [
    {
      "anonymous": false,
      "inputs": [
        {
          "indexed": true,
          "internalType": "address",
          "name": "escrowAddress",
          "type": "address"
        },
        {
          "indexed": true,
          "internalType": "address",
          "name": "buyer",
          "type": "address"
        },
        {
          "indexed": true,
          "internalType": "address",
          "name": "seller",
          "type": "address"
        },
        {
          "indexed": false,
          "internalType": "uint256",
          "name": "timestamp",
          "type": "uint256"
        }
      ],
      "name": "EscrowCreated",
      "type": "event"
    },
    {
      "inputs": [
        {
          "internalType": "address",
          "name": "",
          "type": "address"
        },
        {
          "internalType": "uint256",
          "name": "",
          "type": "uint256"
        }
      ],
      "name": "buyerEscrows",
      "outputs": [
        {
          "internalType": "address",
          "name": "",
          "type": "address"
        }
      ],
      "stateMutability": "view",
      "type": "function"
    },
    {
      "inputs": [
        {
          "internalType": "address",
          "name": "buyer",
          "type": "address"
        },
        {
          "internalType": "address",
          "name": "seller",
          "type": "address"
        }
      ],
      "name": "createEscrow",
      "outputs": [
        {
          "internalType": "address",
          "name": "escrowAddress",
          "type": "address"
        }
      ],
      "stateMutability": "nonpayable",
      "type": "function"
    },
    {
      "inputs": [
        {
          "internalType": "uint256",
          "name": "",
          "type": "uint256"
        }
      ],
      "name": "escrows",
      "outputs": [
        {
          "internalType": "address",
          "name": "",
          "type": "address"
        }
      ],
      "stateMutability": "view",
      "type": "function"
    },
    {
      "inputs": [],
      "name": "getAllEscrows",
      "outputs": [
        {
          "internalType": "address[]",
          "name": "",
          "type": "address[]"
        }
      ],
      "stateMutability": "view",
      "type": "function"
    },
    {
      "inputs": [
        {
          "internalType": "uint256",
          "name": "index",
          "type": "uint256"
        }
      ],
      "name": "getEscrowByIndex",
      "outputs": [
        {
          "internalType": "address",
          "name": "escrowAddress",
          "type": "address"
        },
        {
          "internalType": "address",
          "name": "buyer",
          "type": "address"
        },
        {
          "internalType": "address",
          "name": "seller",
          "type": "address"
        },
        {
          "internalType": "enum Escrow.State",
          "name": "state",
          "type": "uint8"
        },
        {
          "internalType": "uint256",
          "name": "amount",
          "type": "uint256"
        }
      ],
      "stateMutability": "view",
      "type": "function"
    },
    {
      "inputs": [],
      "name": "getEscrowCount",
      "outputs": [
        {
          "internalType": "uint256",
          "name": "",
          "type": "uint256"
        }
      ],
      "stateMutability": "view",
      "type": "function"
    },
    {
      "inputs": [
        {
          "internalType": "address",
          "name": "buyer",
          "type": "address"
        }
      ],
      "name": "getEscrowsAsBuyer",
      "outputs": [
        {
          "internalType": "address[]",
          "name": "",
          "type": "address[]"
        }
      ],
      "stateMutability": "view",
      "type": "function"
    },
    {
      "inputs": [
        {
          "internalType": "address",
          "name": "seller",
          "type": "address"
        }
      ],
      "name": "getEscrowsAsSeller",
      "outputs": [
        {
          "internalType": "address[]",
          "name": "",
          "type": "address[]"
        }
      ],
      "stateMutability": "view",
      "type": "function"
    },
    {
      "inputs": [
        {
          "internalType": "address",
          "name": "",
          "type": "address"
        },
        {
          "internalType": "uint256",
          "name": "",
          "type": "uint256"
        }
      ],
      "name": "sellerEscrows",
      "outputs": [
        {
          "internalType": "address",
          "name": "",
          "type": "address"
        }
      ],
      "stateMutability": "view",
      "type": "function"
    }
  ],
  "bytecode": "0x608060405234801561001057600080fd5b50611214806100206000396000f3fe608060405234801561001057600080fd5b50600436106100935760003560e01c806370c951a51161006657806370c951a514610110578063834cc6fc146101235780639a6ac36f146101365780639bc85f2e1461014b578063cb74a5511461015e57600080fd5b8063012f52ee1461009857806316b15135146100c85780631b5924cf146100d95780635a3a9d6b146100ec575b600080fd5b6100ab6100a636600461066f565b610171565b6040516001600160a01b0390911681526020015b60405180910390f35b6000546040519081526020016100bf565b6100ab6100e73660046106a0565b61019b565b6100ff6100fa36600461066f565b6101d3565b6040516100bf9594939291906106cc565b6100ab61011e3660046106a0565b6102c9565b6100ab61013136600461071d565b6102e5565b61013e610516565b6040516100bf9190610756565b61013e6101593660046107a3565b610578565b61013e61016c3660046107a3565b6105ee565b6000818154811061018157600080fd5b6000918252602090912001546001600160a01b0316905081565b600260205281600052604060002081815481106101b757600080fd5b6000918252602090912001546001600160a01b03169150829050565b6000806000806000808054905086106102295760405162461bcd60e51b8152602060048201526013602482015272496e646578206f7574206f6620626f756e647360681b60448201526064015b60405180910390fd5b6000868154811061023c5761023c6107c7565b600091825260209091200154604080516307ddfc9d60e51b815290516001600160a01b0390921696508691829163fbbf93a09160048083019260809291908290030181865afa158015610293573d6000803e3d6000fd5b505050506040513d601f19601f820116820180604052508101906102b791906107dd565b989a9299509097909650945092505050565b600160205281600052604060002081815481106101b757600080fd5b60006001600160a01b0383166103355760405162461bcd60e51b8152602060048201526015602482015274496e76616c6964206275796572206164647265737360581b6044820152606401610220565b6001600160a01b0382166103845760405162461bcd60e51b8152602060048201526016602482015275496e76616c69642073656c6c6572206164647265737360501b6044820152606401610220565b816001600160a01b0316836001600160a01b0316036103f05760405162461bcd60e51b815260206004820152602260248201527f427579657220616e642073656c6c6572206d75737420626520646966666572656044820152611b9d60f21b6064820152608401610220565b6000838360405161040090610662565b6001600160a01b03928316815291166020820152604001604051809103906000f080158015610433573d6000803e3d6000fd5b5060008054600181810183557f290decd9548b62a8d60345a988386fc84ba6bc95484008f6362f93160ef3e56390910180546001600160a01b038086166001600160a01b031992831681179093558981168086526020858152604080882080548089018255908952828920018054861687179055928b16808852600282528388208054978801815588529620909401805490921683179091555193955085945091929091907fd99c67ae0185d6b0a36717d67d259f252914f7955744e4d81a91685ff480896d906105079042815260200190565b60405180910390a45092915050565b6060600080548060200260200160405190810160405280929190818152602001828054801561056e57602002820191906000526020600020905b81546001600160a01b03168152600190910190602001808311610550575b5050505050905090565b6001600160a01b0381166000908152600260209081526040918290208054835181840281018401909452808452606093928301828280156105e257602002820191906000526020600020905b81546001600160a01b031681526001909101906020018083116105c4575b50505050509050919050565b6001600160a01b0381166000908152600160209081526040918290208054835181840281018401909452808452606093928301828280156105e2576020028201919060005260206000209081546001600160a01b031681526001909101906020018083116105c45750505050509050919050565b6109aa8061083583390190565b60006020828403121561068157600080fd5b5035919050565b6001600160a01b038116811461069d57600080fd5b50565b600080604083850312156106b357600080fd5b82356106be81610688565b946020939093013593505050565b6001600160a01b03868116825285811660208301528416604082015260a081016005841061070a57634e487b7160e01b600052602160045260246000fd5b6060820193909352608001529392505050565b6000806040838503121561073057600080fd5b823561073b81610688565b9150602083013561074b81610688565b809150509250929050565b6020808252825182820181905260009190848201906040850190845b818110156107975783516001600160a01b031683529284019291840191600101610772565b50909695505050505050565b6000602082840312156107b557600080fd5b81356107c081610688565b9392505050565b634e487b7160e01b600052603260045260246000fd5b600080600080608085870312156107f357600080fd5b84516107fe81610688565b602086015190945061080f81610688565b60408601519093506005811061082457600080fd5b606095909501519396929550505056fe608060405234801561001057600080fd5b506040516109aa3803806109aa83398101604081905261002f9161019e565b6001600160a01b03821661008a5760405162461bcd60e51b815260206004820152601560248201527f496e76616c69642062757965722061646472657373000000000000000000000060448201526064015b60405180910390fd5b6001600160a01b0381166100e05760405162461bcd60e51b815260206004820152601660248201527f496e76616c69642073656c6c65722061646472657373000000000000000000006044820152606401610081565b806001600160a01b0316826001600160a01b03160361014c5760405162461bcd60e51b815260206004820152602260248201527f427579657220616e642073656c6c6572206d75737420626520646966666572656044820152611b9d60f21b6064820152608401610081565b600080546001600160a01b0319166001600160a01b03938416179055600180546001600160a81b031916919092161790556101d1565b80516001600160a01b038116811461019957600080fd5b919050565b600080604083850312156101b157600080fd5b6101ba83610182565b91506101c860208401610182565b90509250929050565b6107ca806101e06000396000f3fe6080604052600436106100865760003560e01c8063aa8c217c11610059578063aa8c217c14610114578063b60d428814610138578063c19d93fb14610140578063fbbf93a01461016e578063feb71d9a146101ae57600080fd5b806308551a531461008b578063590e1ae3146100c85780635e10177b146100df5780637150d8ae146100f4575b600080fd5b34801561009757600080fd5b506001546100ab906001600160a01b031681565b6040516001600160a01b0390911681526020015b60405180910390f35b3480156100d457600080fd5b506100dd6101c3565b005b3480156100eb57600080fd5b506100dd61037f565b34801561010057600080fd5b506000546100ab906001600160a01b031681565b34801561012057600080fd5b5061012a60025481565b6040519081526020016100bf565b6100dd6104cb565b34801561014c57600080fd5b5060015461016190600160a01b900460ff1681565b6040516100bf91906106e0565b34801561017a57600080fd5b506000546001546002546001600160a01b0392831692821691600160a01b900460ff16906040516100bf94939291906106f4565b3480156101ba57600080fd5b506100dd6105d1565b6000546001600160a01b031633146101f65760405162461bcd60e51b81526004016101ed90610728565b60405180910390fd5b60018054600160a01b900460ff166004811115610215576102156106a8565b148061023e57506002600154600160a01b900460ff16600481111561023c5761023c6106a8565b145b6102a35760405162461bcd60e51b815260206004820152603060248201527f526566756e64206f6e6c7920617661696c61626c6520696e2046756e6465642060448201526f6f72205368697070656420737461746560801b60648201526084016101ed565b6001805460ff60a01b1916600160a21b179055600080546002546040516001600160a01b03909216918381818185875af1925050503d8060008114610304576040519150601f19603f3d011682016040523d82523d6000602084013e610309565b606091505b50509050806103535760405162461bcd60e51b81526020600482015260166024820152751499599d5b99081d1bc8189d5e595c8819985a5b195960521b60448201526064016101ed565b6040517f8616bbbbad963e4e65b1366f1d75dfb63f9e9704bbbf91fb01bec70849906cf790600090a150565b6000546001600160a01b031633146103a95760405162461bcd60e51b81526004016101ed90610728565b600280600154600160a01b900460ff1660048111156103ca576103ca6106a8565b146103e75760405162461bcd60e51b81526004016101ed9061075f565b60018054600360a01b60ff60a01b198216179091556002546040516000926001600160a01b031691908381818185875af1925050503d8060008114610448576040519150601f19603f3d011682016040523d82523d6000602084013e61044d565b606091505b505090508061049e5760405162461bcd60e51b815260206004820152601960248201527f5472616e7366657220746f2073656c6c6572206661696c65640000000000000060448201526064016101ed565b6040517fe06452d00b2b58f14a1fa6d499ea982ff93ea827ae700ea9ba03f4daddc94bc190600090a15050565b6000546001600160a01b031633146104f55760405162461bcd60e51b81526004016101ed90610728565b600080600154600160a01b900460ff166004811115610516576105166106a8565b146105335760405162461bcd60e51b81526004016101ed9061075f565b600034116105835760405162461bcd60e51b815260206004820152601d60248201527f4d7573742073656e64204842415220746f2066756e6420657363726f7700000060448201526064016101ed565b3460028190556001805460ff60a01b1916600160a01b17905560408051918252517fc4c14883ae9fd8e26d5d59e3485ed29fd126d781d7e498a4ca5c54c8268e49369181900360200190a150565b6001546001600160a01b0316331461062b5760405162461bcd60e51b815260206004820152601960248201527f4f6e6c792073656c6c65722063616e2063616c6c20746869730000000000000060448201526064016101ed565b600180600154600160a01b900460ff16600481111561064c5761064c6106a8565b146106695760405162461bcd60e51b81526004016101ed9061075f565b6001805460ff60a01b1916600160a11b1790556040517f7e59301e8f305f5c00782684a06219e893eb13468cc8476daa9e4a2197f95e5e90600090a150565b634e487b7160e01b600052602160045260246000fd5b600581106106dc57634e487b7160e01b600052602160045260246000fd5b9052565b602081016106ee82846106be565b92915050565b6001600160a01b038581168252841660208201526080810161071960408301856106be565b82606083015295945050505050565b60208082526018908201527f4f6e6c792062757965722063616e2063616c6c20746869730000000000000000604082015260600190565b6020808252818101527f496e76616c696420737461746520666f722074686973206f7065726174696f6e60408201526060019056fea26469706673582212207baba4232236f19b4c109b7b5c5d2c6ae2ac96560dcddc6433be72ce53aeaa5b64736f6c63430008140033a2646970667358221220feaec81524b307945e131f51203321263ec519243b7d3df3b30b656cd87c9bf064736f6c63430008140033",
  "linkReferences": {},
  "deployedLinkReferences": {}
}